{
  "contractName": "Will",
  "abi": [
    {
      "inputs": [
        {
          "name": "_month",
          "type": "uint8"
        },
        {
          "name": "_day",
          "type": "uint8"
        },
        {
          "name": "_year",
          "type": "uint16"
        },
        {
          "name": "_passWordFirstHalf",
          "type": "string"
        },
        {
          "name": "_passWordSecondHalf",
          "type": "string"
        },
        {
          "name": "_numOfEthers",
          "type": "uint256"
        }
      ],
      "payable": true,
      "stateMutability": "payable",
      "type": "constructor"
    },
    {
      "constant": false,
      "inputs": [
        {
          "name": "_enteredPassWordFirstHalf",
          "type": "string"
        },
        {
          "name": "_enteredPassWordSecondHalf",
          "type": "string"
        }
      ],
      "name": "jackWithdraw",
      "outputs": [],
      "payable": false,
      "stateMutability": "nonpayable",
      "type": "function"
    },
    {
      "constant": false,
      "inputs": [
        {
          "name": "_passWordSecondHalf",
          "type": "string"
        }
      ],
      "name": "ngoWithdraw",
      "outputs": [],
      "payable": false,
      "stateMutability": "nonpayable",
      "type": "function"
    }
  ],
  "bytecode": "0x606060405260405162000d5338038062000d538339810160405280805190602001909190805190602001909190805190602001909190805182019190602001805182019190602001805190602001909190505062000073848787620000be6401000000000262000468176401000000009004565b60008190555082600190805190602001906200009192919062000464565b508160029080519060200190620000aa92919062000464565b508060038190555050505050505062000540565b6000620000e68484846000806000620000ef6401000000000262000483176401000000009004565b90509392505050565b600080620000fc620004eb565b6107b291505b8861ffff168261ffff1610156200015f576200013282620003da640100000000026200072a176401000000009004565b1562000147576301e285008301925062000151565b6301e13380830192505b818060010192505062000102565b601f816000600c811015156200017157fe5b602002019060ff16908160ff1681525050620001a189620003da640100000000026200072a176401000000009004565b15620001d057601d816001600c81101515620001b957fe5b602002019060ff16908160ff1681525050620001f4565b601c816001600c81101515620001e257fe5b602002019060ff16908160ff16815250505b601f816002600c811015156200020657fe5b602002019060ff16908160ff1681525050601e816003600c811015156200022957fe5b602002019060ff16908160ff1681525050601f816004600c811015156200024c57fe5b602002019060ff16908160ff1681525050601e816005600c811015156200026f57fe5b602002019060ff16908160ff1681525050601f816006600c811015156200029257fe5b602002019060ff16908160ff1681525050601f816007600c81101515620002b557fe5b602002019060ff16908160ff1681525050601e816008600c81101515620002d857fe5b602002019060ff16908160ff1681525050601f816009600c81101515620002fb57fe5b602002019060ff16908160ff1681525050601e81600a600c811015156200031e57fe5b602002019060ff16908160ff1681525050601f81600b600c811015156200034157fe5b602002019060ff16908160ff1681525050600191505b8760ff168261ffff1610156200039c57806001830361ffff16600c811015156200037d57fe5b602002015160ff16620151800283019250818060010192505062000357565b6001870360ff166201518002830192508560ff16610e1002830192508460ff16603c02830192508360ff168301925082925050509695505050505050565b60008060048361ffff16811515620003ee57fe5b0661ffff161415156200040557600090506200045f565b600060648361ffff168115156200041857fe5b0661ffff161415156200042f57600190506200045f565b60006101908361ffff168115156200044357fe5b0661ffff161415156200045a57600090506200045f565b600190505b919050565b828054600181600116156101000203166002900490600052602060002090601f016020900481019282601f10620004a757805160ff1916838001178555620004d8565b82800160010185558215620004d8579182015b82811115620004d7578251825591602001919060010190620004ba565b5b509050620004e7919062000518565b5090565b61018060405190810160405280600c905b600060ff16815260200190600190039081620004fc5790505090565b6200053d91905b80821115620005395760008160009055506001016200051f565b5090565b90565b61080380620005506000396000f30060606040526004361061004c576000357c0100000000000000000000000000000000000000000000000000000000900463ffffffff1680636b2b8dfc1461005157806395f25744146100ae575b600080fd5b341561005c57600080fd5b6100ac600480803590602001908201803590602001908080601f0160208091040260200160405190810160405280939291908181526020018383808284378201915050505050509190505061014e565b005b34156100b957600080fd5b61014c600480803590602001908201803590602001908080601f0160208091040260200160405190810160405280939291908181526020018383808284378201915050505050509190803590602001908201803590602001908080601f01602080910402602001604051908101604052809392919081815260200183838082843782019150505050505091905050610263565b005b610156610454565b6000544211151561016657600080fd5b819050600260405180828054600181600116156101000203166002900480156101c65780601f106101a45761010080835404028352918201916101c6565b820191906000526020600020905b8154815290600101906020018083116101b2575b5050915050604051809103902060001916816040518082805190602001908083835b60208310151561020d57805182526020820191506020810190506020830392506101e8565b6001836020036101000a03801982511681845116808217855250505050505090500191505060405180910390206000191614151561024a57600080fd5b3373ffffffffffffffffffffffffffffffffffffffff16ff5b61026b610454565b610273610454565b839150829050600160405180828054600181600116156101000203166002900480156102d65780601f106102b45761010080835404028352918201916102d6565b820191906000526020600020905b8154815290600101906020018083116102c2575b5050915050604051809103902060001916826040518082805190602001908083835b60208310151561031d57805182526020820191506020810190506020830392506102f8565b6001836020036101000a03801982511681845116808217855250505050505090500191505060405180910390206000191614151561035a57600080fd5b600260405180828054600181600116156101000203166002900480156103b75780601f106103955761010080835404028352918201916103b7565b820191906000526020600020905b8154815290600101906020018083116103a3575b5050915050604051809103902060001916816040518082805190602001908083835b6020831015156103fe57805182526020820191506020810190506020830392506103d9565b6001836020036101000a03801982511681845116808217855250505050505090500191505060405180910390206000191614151561043b57600080fd5b3373ffffffffffffffffffffffffffffffffffffffff16ff5b602060405190810160405280600081525090565b600061047a8484846000806000610483565b90509392505050565b60008061048e6107ab565b6107b291505b8861ffff168261ffff1610156104d7576104ad8261072a565b156104c0576301e28500830192506104ca565b6301e13380830192505b8180600101925050610494565b601f816000600c811015156104e857fe5b602002019060ff16908160ff16815250506105028961072a565b1561052e57601d816001600c8110151561051857fe5b602002019060ff16908160ff1681525050610551565b601c816001600c8110151561053f57fe5b602002019060ff16908160ff16815250505b601f816002600c8110151561056257fe5b602002019060ff16908160ff1681525050601e816003600c8110151561058457fe5b602002019060ff16908160ff1681525050601f816004600c811015156105a657fe5b602002019060ff16908160ff1681525050601e816005600c811015156105c857fe5b602002019060ff16908160ff1681525050601f816006600c811015156105ea57fe5b602002019060ff16908160ff1681525050601f816007600c8110151561060c57fe5b602002019060ff16908160ff1681525050601e816008600c8110151561062e57fe5b602002019060ff16908160ff1681525050601f816009600c8110151561065057fe5b602002019060ff16908160ff1681525050601e81600a600c8110151561067257fe5b602002019060ff16908160ff1681525050601f81600b600c8110151561069457fe5b602002019060ff16908160ff1681525050600191505b8760ff168261ffff1610156106ec57806001830361ffff16600c811015156106ce57fe5b602002015160ff1662015180028301925081806001019250506106aa565b6001870360ff166201518002830192508560ff16610e1002830192508460ff16603c02830192508360ff168301925082925050509695505050505050565b60008060048361ffff1681151561073d57fe5b0661ffff1614151561075257600090506107a6565b600060648361ffff1681151561076457fe5b0661ffff1614151561077957600190506107a6565b60006101908361ffff1681151561078c57fe5b0661ffff161415156107a157600090506107a6565b600190505b919050565b61018060405190810160405280600c905b600060ff168152602001906001900390816107bc57905050905600a165627a7a72305820b0c2ea7a91bcdf77a6f0fd7db6fa2e9d0d6b338a379ec1f8b672169aa359c82a0029",
  "source": "pragma solidity ^0.4.0;\n\n//CSC4700\n//04-08-2018\n//Thomas Johnson & Timothy Ratliff\n//Will Contract Project\ncontract Will {\n\n    //The following UNIX timestamp code was provided by pipermerriam on Github\n    //We would use the contract API that they provided, but in testing we cannot\n    //actually access the contract on the block chain in order to make function calls\n    //so this code has been copied in to provide the same code reusability their contract\n    //would provide on the real Ethereum network.\n\n    //begin pipermerriam code\n    uint constant DAY_IN_SECONDS = 86400;\n    uint constant YEAR_IN_SECONDS = 31536000;\n    uint constant LEAP_YEAR_IN_SECONDS = 31622400;\n\n    uint constant HOUR_IN_SECONDS = 3600;\n    uint constant MINUTE_IN_SECONDS = 60;\n    uint16 constant ORIGIN_YEAR = 1970;\n\n    function isLeapYear(uint16 year) private pure returns (bool) {\n        if (year % 4 != 0) {\n          return false;\n        }\n        if (year % 100 != 0) {\n          return true;\n        }\n        if (year % 400 != 0) {\n          return false;\n        }\n        return true;\n      }\n\n    function toTimestamp(uint16 year, uint8 month, uint8 day) private pure returns (uint timestamp) {\n      return toTimestamp(year, month, day, 0, 0, 0);\n      }\n\n    function toTimestamp(uint16 year, uint8 month, uint8 day,\n    uint8 hour, uint8 minute, uint8 second) private pure returns (uint timestamp) {\n\n      uint16 i;\n\n      for (i = ORIGIN_YEAR; i < year; i++) {\n        if (isLeapYear(i)) {\n          timestamp += LEAP_YEAR_IN_SECONDS;\n        }\n        else {\n          timestamp += YEAR_IN_SECONDS;\n        }\n      }\n\n      // Month\n      uint8[12] memory monthDayCounts;\n      monthDayCounts[0] = 31;\n      if (isLeapYear(year)) {\n        monthDayCounts[1] = 29;\n      }\n      else {\n        monthDayCounts[1] = 28;\n      }\n      monthDayCounts[2] = 31;\n      monthDayCounts[3] = 30;\n      monthDayCounts[4] = 31;\n      monthDayCounts[5] = 30;\n      monthDayCounts[6] = 31;\n      monthDayCounts[7] = 31;\n      monthDayCounts[8] = 30;\n      monthDayCounts[9] = 31;\n      monthDayCounts[10] = 30;\n      monthDayCounts[11] = 31;\n\n      for (i = 1; i < month; i++) {\n        timestamp += DAY_IN_SECONDS * monthDayCounts[i - 1];\n      }\n      // Day\n      timestamp += DAY_IN_SECONDS * (day - 1);\n\n      // Hour\n      timestamp += HOUR_IN_SECONDS * (hour);\n\n      // Minute\n      timestamp += MINUTE_IN_SECONDS * (minute);\n\n      // Second\n      timestamp += second;\n\n      return timestamp;\n    }\n//End of pipermerriam code.\n\n\n    //Deadline deadline;\n    uint deadline;\n    bytes passWordFirstHalf;\n    bytes passWordSecondHalf;\n    uint numOfEthers;\n\n    //Will Constructor. The payable keyword allows ether to be attatched to the creation of This\n    //object.\n    function Will(uint8 _month, uint8 _day, uint16 _year, string _passWordFirstHalf,\n    string _passWordSecondHalf, uint _numOfEthers) payable public {\n\n\n        //Research shows that date times in Solidity are typically saved as unsigned ints\n        //Though we could create our own enum data type to handle a textual input.\n        deadline = toTimestamp(_year, _month, _day);\n\n        //casts the string objects to bytes and then stores them.\n        passWordFirstHalf = bytes(_passWordFirstHalf);\n        passWordSecondHalf = bytes(_passWordSecondHalf);\n\n        //When a contract is created ether is sent along with it. Therefore it is Not\n        //necessary to have a \"numOfEthers\" field, however it is often good practice.\n        numOfEthers = _numOfEthers;\n        //require(msg.value == _numOfEthers);\n\n    }\n\n    /*When a function has a parameter that is stored in the Ethereum VM at runtime\n    or like when a function tries to call on the contract it is stored in EVM\n    \"memory\" Those variables need to be declared specifically. When something\n    is coming from the contract itself it is \"storage\" Which I think is the\n    implicit setting. Since Jack's withdraw relies on user input or call Those\n    function variables will be stored in the EVM memory and should be declared as\n    such.\n    */\n    function jackWithdraw(string memory _enteredPassWordFirstHalf,\n      string memory _enteredPassWordSecondHalf) public {\n        //Converts Jack's input to bytes.\n        bytes memory enteredPassWordFirstHalf = bytes(_enteredPassWordFirstHalf);\n        bytes memory enteredPassWordSecondHalf = bytes(_enteredPassWordSecondHalf);\n\n        //Hashes the bytes of the stored passwords and the entered passwords and then compares\n        //them against one another. Require cancels the transactions if the condition is not met.\n        require(keccak256(enteredPassWordFirstHalf) == keccak256(passWordFirstHalf));\n        require(keccak256(enteredPassWordSecondHalf) == keccak256(passWordSecondHalf));\n        selfdestruct(msg.sender);\n    }\n\n    //See the blurb above Jack's withdraw\n    function ngoWithdraw(string memory _passWordSecondHalf) public {\n      //This requirement must be met before the contract proceeds\n      require(block.timestamp > deadline);\n        //Converts ngo input to bytes\n      bytes memory enteredPassWordSecondHalf = bytes(_passWordSecondHalf);\n      //Hashes the bytes of the stored passwords and the entered passwords and then compares\n      //them against one another. Require cancels the transactions if the condition is not met.\n      require(keccak256(enteredPassWordSecondHalf) == keccak256(passWordSecondHalf));\n      selfdestruct(msg.sender);\n    }\n}\n",
  "sourcePath": "/home/thomas/Desktop/4700SolidityProject/webApp/contracts/Will.sol",
  "compiler": {
    "name": "solc",
    "version": "0.4.21+commit.dfe3193c.Emscripten.clang"
  },
  "schemaVersion": "2.0.0",
  "updatedAt": "2018-04-27T16:44:41.061Z"
}